{
  "abi": [
    {
      "inputs": [
        {
          "internalType": "string",
          "name": "_name",
          "type": "string"
        },
        {
          "internalType": "string",
          "name": "_symbol",
          "type": "string"
        },
        {
          "internalType": "string",
          "name": "_baseURI",
          "type": "string"
        }
      ],
      "stateMutability": "nonpayable",
      "type": "constructor"
    },
    {
      "inputs": [],
      "name": "CallerNotChickenManager",
      "type": "error"
    },
    {
      "inputs": [],
      "name": "TokenDoesNotExist",
      "type": "error"
    },
    {
      "anonymous": false,
      "inputs": [
        {
          "indexed": true,
          "internalType": "address",
          "name": "owner",
          "type": "address"
        },
        {
          "indexed": true,
          "internalType": "address",
          "name": "spender",
          "type": "address"
        },
        {
          "indexed": true,
          "internalType": "uint256",
          "name": "id",
          "type": "uint256"
        }
      ],
      "name": "Approval",
      "type": "event"
    },
    {
      "anonymous": false,
      "inputs": [
        {
          "indexed": true,
          "internalType": "address",
          "name": "owner",
          "type": "address"
        },
        {
          "indexed": true,
          "internalType": "address",
          "name": "operator",
          "type": "address"
        },
        {
          "indexed": false,
          "internalType": "bool",
          "name": "approved",
          "type": "bool"
        }
      ],
      "name": "ApprovalForAll",
      "type": "event"
    },
    {
      "anonymous": false,
      "inputs": [
        {
          "indexed": true,
          "internalType": "address",
          "name": "previousOwner",
          "type": "address"
        },
        {
          "indexed": true,
          "internalType": "address",
          "name": "newOwner",
          "type": "address"
        }
      ],
      "name": "OwnershipTransferred",
      "type": "event"
    },
    {
      "anonymous": false,
      "inputs": [
        {
          "indexed": true,
          "internalType": "address",
          "name": "from",
          "type": "address"
        },
        {
          "indexed": true,
          "internalType": "address",
          "name": "to",
          "type": "address"
        },
        {
          "indexed": true,
          "internalType": "uint256",
          "name": "id",
          "type": "uint256"
        }
      ],
      "name": "Transfer",
      "type": "event"
    },
    {
      "inputs": [
        {
          "internalType": "address",
          "name": "spender",
          "type": "address"
        },
        {
          "internalType": "uint256",
          "name": "id",
          "type": "uint256"
        }
      ],
      "name": "approve",
      "outputs": [],
      "stateMutability": "nonpayable",
      "type": "function"
    },
    {
      "inputs": [
        {
          "internalType": "address",
          "name": "owner",
          "type": "address"
        }
      ],
      "name": "balanceOf",
      "outputs": [
        {
          "internalType": "uint256",
          "name": "",
          "type": "uint256"
        }
      ],
      "stateMutability": "view",
      "type": "function"
    },
    {
      "inputs": [],
      "name": "baseURI",
      "outputs": [
        {
          "internalType": "string",
          "name": "",
          "type": "string"
        }
      ],
      "stateMutability": "view",
      "type": "function"
    },
    {
      "inputs": [
        {
          "internalType": "uint256",
          "name": "tokenId",
          "type": "uint256"
        }
      ],
      "name": "burn",
      "outputs": [],
      "stateMutability": "nonpayable",
      "type": "function"
    },
    {
      "inputs": [],
      "name": "chickenBondManagerAddress",
      "outputs": [
        {
          "internalType": "address",
          "name": "",
          "type": "address"
        }
      ],
      "stateMutability": "view",
      "type": "function"
    },
    {
      "inputs": [
        {
          "internalType": "uint256",
          "name": "",
          "type": "uint256"
        }
      ],
      "name": "getApproved",
      "outputs": [
        {
          "internalType": "address",
          "name": "",
          "type": "address"
        }
      ],
      "stateMutability": "view",
      "type": "function"
    },
    {
      "inputs": [
        {
          "internalType": "address",
          "name": "",
          "type": "address"
        },
        {
          "internalType": "address",
          "name": "",
          "type": "address"
        }
      ],
      "name": "isApprovedForAll",
      "outputs": [
        {
          "internalType": "bool",
          "name": "",
          "type": "bool"
        }
      ],
      "stateMutability": "view",
      "type": "function"
    },
    {
      "inputs": [
        {
          "internalType": "address",
          "name": "bonder",
          "type": "address"
        }
      ],
      "name": "mint",
      "outputs": [
        {
          "internalType": "uint256",
          "name": "",
          "type": "uint256"
        }
      ],
      "stateMutability": "nonpayable",
      "type": "function"
    },
    {
      "inputs": [],
      "name": "name",
      "outputs": [
        {
          "internalType": "string",
          "name": "",
          "type": "string"
        }
      ],
      "stateMutability": "view",
      "type": "function"
    },
    {
      "inputs": [],
      "name": "owner",
      "outputs": [
        {
          "internalType": "address",
          "name": "",
          "type": "address"
        }
      ],
      "stateMutability": "view",
      "type": "function"
    },
    {
      "inputs": [
        {
          "internalType": "uint256",
          "name": "id",
          "type": "uint256"
        }
      ],
      "name": "ownerOf",
      "outputs": [
        {
          "internalType": "address",
          "name": "owner",
          "type": "address"
        }
      ],
      "stateMutability": "view",
      "type": "function"
    },
    {
      "inputs": [],
      "name": "renounceOwnership",
      "outputs": [],
      "stateMutability": "nonpayable",
      "type": "function"
    },
    {
      "inputs": [
        {
          "internalType": "address",
          "name": "from",
          "type": "address"
        },
        {
          "internalType": "address",
          "name": "to",
          "type": "address"
        },
        {
          "internalType": "uint256",
          "name": "id",
          "type": "uint256"
        }
      ],
      "name": "safeTransferFrom",
      "outputs": [],
      "stateMutability": "nonpayable",
      "type": "function"
    },
    {
      "inputs": [
        {
          "internalType": "address",
          "name": "from",
          "type": "address"
        },
        {
          "internalType": "address",
          "name": "to",
          "type": "address"
        },
        {
          "internalType": "uint256",
          "name": "id",
          "type": "uint256"
        },
        {
          "internalType": "bytes",
          "name": "data",
          "type": "bytes"
        }
      ],
      "name": "safeTransferFrom",
      "outputs": [],
      "stateMutability": "nonpayable",
      "type": "function"
    },
    {
      "inputs": [
        {
          "internalType": "address",
          "name": "_chickenBondManagerAddress",
          "type": "address"
        }
      ],
      "name": "setAddresses",
      "outputs": [],
      "stateMutability": "nonpayable",
      "type": "function"
    },
    {
      "inputs": [
        {
          "internalType": "address",
          "name": "operator",
          "type": "address"
        },
        {
          "internalType": "bool",
          "name": "approved",
          "type": "bool"
        }
      ],
      "name": "setApprovalForAll",
      "outputs": [],
      "stateMutability": "nonpayable",
      "type": "function"
    },
    {
      "inputs": [
        {
          "internalType": "bytes4",
          "name": "interfaceId",
          "type": "bytes4"
        }
      ],
      "name": "supportsInterface",
      "outputs": [
        {
          "internalType": "bool",
          "name": "",
          "type": "bool"
        }
      ],
      "stateMutability": "view",
      "type": "function"
    },
    {
      "inputs": [],
      "name": "symbol",
      "outputs": [
        {
          "internalType": "string",
          "name": "",
          "type": "string"
        }
      ],
      "stateMutability": "view",
      "type": "function"
    },
    {
      "inputs": [
        {
          "internalType": "uint256",
          "name": "tokenId",
          "type": "uint256"
        }
      ],
      "name": "tokenURI",
      "outputs": [
        {
          "internalType": "string",
          "name": "",
          "type": "string"
        }
      ],
      "stateMutability": "view",
      "type": "function"
    },
    {
      "inputs": [],
      "name": "totalSupply",
      "outputs": [
        {
          "internalType": "uint256",
          "name": "",
          "type": "uint256"
        }
      ],
      "stateMutability": "view",
      "type": "function"
    },
    {
      "inputs": [
        {
          "internalType": "address",
          "name": "from",
          "type": "address"
        },
        {
          "internalType": "address",
          "name": "to",
          "type": "address"
        },
        {
          "internalType": "uint256",
          "name": "id",
          "type": "uint256"
        }
      ],
      "name": "transferFrom",
      "outputs": [],
      "stateMutability": "nonpayable",
      "type": "function"
    },
    {
      "inputs": [
        {
          "internalType": "address",
          "name": "newOwner",
          "type": "address"
        }
      ],
      "name": "transferOwnership",
      "outputs": [],
      "stateMutability": "nonpayable",
      "type": "function"
    }
  ],
  "bytecode": {
    "object": "0x608060405260006007553480156200001657600080fd5b5060405162001737380380620017378339810160408190526200003991620001a8565b82826000620000498382620002c8565b506001620000588282620002c8565b505050620000756200006f6200008d60201b60201c565b62000091565b6008620000838282620002c8565b5050505062000394565b3390565b600680546001600160a01b038381166001600160a01b0319831681179093556040519116919082907f8be0079c531659141344cd1fd0a4f28419497f9722a3daafe3b4186f6b6457e090600090a35050565b634e487b7160e01b600052604160045260246000fd5b600082601f8301126200010b57600080fd5b81516001600160401b0380821115620001285762000128620000e3565b604051601f8301601f19908116603f01168101908282118183101715620001535762000153620000e3565b816040528381526020925086838588010111156200017057600080fd5b600091505b8382101562000194578582018301518183018401529082019062000175565b600093810190920192909252949350505050565b600080600060608486031215620001be57600080fd5b83516001600160401b0380821115620001d657600080fd5b620001e487838801620000f9565b94506020860151915080821115620001fb57600080fd5b6200020987838801620000f9565b935060408601519150808211156200022057600080fd5b506200022f86828701620000f9565b9150509250925092565b600181811c908216806200024e57607f821691505b6020821081036200026f57634e487b7160e01b600052602260045260246000fd5b50919050565b601f821115620002c357600081815260208120601f850160051c810160208610156200029e5750805b601f850160051c820191505b81811015620002bf57828155600101620002aa565b5050505b505050565b81516001600160401b03811115620002e457620002e4620000e3565b620002fc81620002f5845462000239565b8462000275565b602080601f8311600181146200033457600084156200031b5750858301515b600019600386901b1c1916600185901b178555620002bf565b600085815260208120601f198616915b82811015620003655788860151825594840194600190910190840162000344565b5085821015620003845787850151600019600388901b60f8161c191681555b5050505050600190811b01905550565b61139380620003a46000396000f3fe608060405234801561001057600080fd5b50600436106101425760003560e01c806370a08231116100b8578063a22cb4651161007c578063a22cb4651461029f578063b88d4fde146102b2578063c6315aa0146102c5578063c87b56dd146102d8578063e985e9c5146102eb578063f2fde38b1461031957600080fd5b806370a0823114610258578063715018a61461026b57806381d3c435146102735780638da5cb5b1461028657806395d89b411461029757600080fd5b806323b872dd1161010a57806323b872dd146101f157806342842e0e1461020457806342966c68146102175780636352211e1461022a5780636a6278421461023d5780636c0360eb1461025057600080fd5b806301ffc9a71461014757806306fdde031461016f578063081812fc14610184578063095ea7b3146101c557806318160ddd146101da575b600080fd5b61015a610155366004610f8c565b61032c565b60405190151581526020015b60405180910390f35b61017761037e565b6040516101669190610fd4565b6101ad610192366004611007565b6004602052600090815260409020546001600160a01b031681565b6040516001600160a01b039091168152602001610166565b6101d86101d3366004611037565b61040c565b005b6101e360075481565b604051908152602001610166565b6101d86101ff366004611061565b6104f3565b6101d8610212366004611061565b6106ba565b6101d8610225366004611007565b6107b2565b6101ad610238366004611007565b6107c6565b6101e361024b36600461109d565b61081d565b610177610846565b6101e361026636600461109d565b610853565b6101d86108b6565b6101d861028136600461109d565b6108ca565b6006546001600160a01b03166101ad565b6101776108f5565b6101d86102ad3660046110b8565b610902565b6101d86102c03660046110f4565b61096e565b6009546101ad906001600160a01b031681565b6101776102e6366004611007565b610a56565b61015a6102f936600461118f565b600560209081526000928352604080842090915290825290205460ff1681565b6101d861032736600461109d565b610ae6565b60006301ffc9a760e01b6001600160e01b03198316148061035d57506380ac58cd60e01b6001600160e01b03198316145b806103785750635b5e139f60e01b6001600160e01b03198316145b92915050565b6000805461038b906111c2565b80601f01602080910402602001604051908101604052809291908181526020018280546103b7906111c2565b80156104045780601f106103d957610100808354040283529160200191610404565b820191906000526020600020905b8154815290600101906020018083116103e757829003601f168201915b505050505081565b6000818152600260205260409020546001600160a01b03163381148061045557506001600160a01b038116600090815260056020908152604080832033845290915290205460ff165b6104975760405162461bcd60e51b815260206004820152600e60248201526d1393d517d055551213d49256915160921b60448201526064015b60405180910390fd5b60008281526004602052604080822080546001600160a01b0319166001600160a01b0387811691821790925591518593918516917f8c5be1e5ebec7d5bd14f71427d1e84f3dd0314c0f7b2291e5b200ac8c7c3b92591a4505050565b6000818152600260205260409020546001600160a01b038481169116146105495760405162461bcd60e51b815260206004820152600a60248201526957524f4e475f46524f4d60b01b604482015260640161048e565b6001600160a01b0382166105935760405162461bcd60e51b81526020600482015260116024820152701253959053125117d49150d25412515395607a1b604482015260640161048e565b336001600160a01b03841614806105cd57506001600160a01b038316600090815260056020908152604080832033845290915290205460ff165b806105ee57506000818152600460205260409020546001600160a01b031633145b61062b5760405162461bcd60e51b815260206004820152600e60248201526d1393d517d055551213d49256915160921b604482015260640161048e565b6001600160a01b0380841660008181526003602090815260408083208054600019019055938616808352848320805460010190558583526002825284832080546001600160a01b03199081168317909155600490925284832080549092169091559251849392917fddf252ad1be2c89b69c2b068fc378daa952ba7f163c4a11628f55a4df523b3ef91a4505050565b6106c58383836104f3565b6001600160a01b0382163b158061076e5750604051630a85bd0160e11b8082523360048301526001600160a01b03858116602484015260448301849052608060648401526000608484015290919084169063150b7a029060a4016020604051808303816000875af115801561073e573d6000803e3d6000fd5b505050506040513d601f19601f8201168201806040525081019061076291906111fc565b6001600160e01b031916145b6107ad5760405162461bcd60e51b815260206004820152601060248201526f155394d0519157d49150d2541251539560821b604482015260640161048e565b505050565b6107ba610b5c565b6107c381610b87565b50565b6000818152600260205260409020546001600160a01b0316806108185760405162461bcd60e51b815260206004820152600a6024820152691393d517d3525395115160b21b604482015260640161048e565b919050565b6000610827610b5c565b6007546001016108378382610c54565b60078054600101905592915050565b6008805461038b906111c2565b60006001600160a01b03821661089a5760405162461bcd60e51b815260206004820152600c60248201526b5a45524f5f4144445245535360a01b604482015260640161048e565b506001600160a01b031660009081526003602052604090205490565b6108be610d5f565b6108c86000610db9565b565b6108d2610d5f565b600980546001600160a01b0319166001600160a01b0383161790556107c36108b6565b6001805461038b906111c2565b3360008181526005602090815260408083206001600160a01b03871680855290835292819020805460ff191686151590811790915590519081529192917f17307eab39ab6107e8899845ad3d59bd9653f200f220920489ca2b5937696c31910160405180910390a35050565b6109798585856104f3565b6001600160a01b0384163b1580610a105750604051630a85bd0160e11b808252906001600160a01b0386169063150b7a02906109c19033908a90899089908990600401611219565b6020604051808303816000875af11580156109e0573d6000803e3d6000fd5b505050506040513d601f19601f82011682018060405250810190610a0491906111fc565b6001600160e01b031916145b610a4f5760405162461bcd60e51b815260206004820152601060248201526f155394d0519157d49150d2541251539560821b604482015260640161048e565b5050505050565b60606000610a63836107c6565b6001600160a01b031603610a8a5760405163677510db60e11b815260040160405180910390fd5b600060088054610a99906111c2565b905011610ab55760405180602001604052806000815250610378565b6008610ac083610e0b565b604051602001610ad1929190611289565b60405160208183030381529060405292915050565b610aee610d5f565b6001600160a01b038116610b535760405162461bcd60e51b815260206004820152602660248201527f4f776e61626c653a206e6577206f776e657220697320746865207a65726f206160448201526564647265737360d01b606482015260840161048e565b6107c381610db9565b6009546001600160a01b031633146108c857604051636bfab10b60e01b815260040160405180910390fd5b6000818152600260205260409020546001600160a01b031680610bd95760405162461bcd60e51b815260206004820152600a6024820152691393d517d3525395115160b21b604482015260640161048e565b6001600160a01b038116600081815260036020908152604080832080546000190190558583526002825280832080546001600160a01b031990811690915560049092528083208054909216909155518492907fddf252ad1be2c89b69c2b068fc378daa952ba7f163c4a11628f55a4df523b3ef908390a45050565b6001600160a01b038216610c9e5760405162461bcd60e51b81526020600482015260116024820152701253959053125117d49150d25412515395607a1b604482015260640161048e565b6000818152600260205260409020546001600160a01b031615610cf45760405162461bcd60e51b815260206004820152600e60248201526d1053149150511657d3525395115160921b604482015260640161048e565b6001600160a01b038216600081815260036020908152604080832080546001019055848352600290915280822080546001600160a01b0319168417905551839291907fddf252ad1be2c89b69c2b068fc378daa952ba7f163c4a11628f55a4df523b3ef908290a45050565b6006546001600160a01b031633146108c85760405162461bcd60e51b815260206004820181905260248201527f4f776e61626c653a2063616c6c6572206973206e6f7420746865206f776e6572604482015260640161048e565b600680546001600160a01b038381166001600160a01b0319831681179093556040519116919082907f8be0079c531659141344cd1fd0a4f28419497f9722a3daafe3b4186f6b6457e090600090a35050565b60606000610e1883610e9e565b600101905060008167ffffffffffffffff811115610e3857610e38611347565b6040519080825280601f01601f191660200182016040528015610e62576020820181803683370190505b5090508181016020015b600019016f181899199a1a9b1b9c1cb0b131b232b360811b600a86061a8153600a8504945084610e6c57509392505050565b60008072184f03e93ff9f4daa797ed6e38ed64bf6a1f0160401b8310610edd5772184f03e93ff9f4daa797ed6e38ed64bf6a1f0160401b830492506040015b6d04ee2d6d415b85acef81000000008310610f09576d04ee2d6d415b85acef8100000000830492506020015b662386f26fc100008310610f2757662386f26fc10000830492506010015b6305f5e1008310610f3f576305f5e100830492506008015b6127108310610f5357612710830492506004015b60648310610f65576064830492506002015b600a83106103785760010192915050565b6001600160e01b0319811681146107c357600080fd5b600060208284031215610f9e57600080fd5b8135610fa981610f76565b9392505050565b60005b83811015610fcb578181015183820152602001610fb3565b50506000910152565b6020815260008251806020840152610ff3816040850160208701610fb0565b601f01601f19169190910160400192915050565b60006020828403121561101957600080fd5b5035919050565b80356001600160a01b038116811461081857600080fd5b6000806040838503121561104a57600080fd5b61105383611020565b946020939093013593505050565b60008060006060848603121561107657600080fd5b61107f84611020565b925061108d60208501611020565b9150604084013590509250925092565b6000602082840312156110af57600080fd5b610fa982611020565b600080604083850312156110cb57600080fd5b6110d483611020565b9150602083013580151581146110e957600080fd5b809150509250929050565b60008060008060006080868803121561110c57600080fd5b61111586611020565b945061112360208701611020565b935060408601359250606086013567ffffffffffffffff8082111561114757600080fd5b818801915088601f83011261115b57600080fd5b81358181111561116a57600080fd5b89602082850101111561117c57600080fd5b9699959850939650602001949392505050565b600080604083850312156111a257600080fd5b6111ab83611020565b91506111b960208401611020565b90509250929050565b600181811c908216806111d657607f821691505b6020821081036111f657634e487b7160e01b600052602260045260246000fd5b50919050565b60006020828403121561120e57600080fd5b8151610fa981610f76565b6001600160a01b038681168252851660208201526040810184905260806060820181905281018290526000828460a0840137600060a0848401015260a0601f19601f85011683010190509695505050505050565b6000815161127f818560208601610fb0565b9290920192915050565b600080845481600182811c9150808316806112a557607f831692505b602080841082036112c457634e487b7160e01b86526022600452602486fd5b8180156112d857600181146112ed5761131a565b60ff198616895284151585028901965061131a565b60008b81526020902060005b868110156113125781548b8201529085019083016112f9565b505084890196505b50505050505061133e61132d828661126d565b64173539b7b760d91b815260050190565b95945050505050565b634e487b7160e01b600052604160045260246000fdfea2646970667358221220a0ece86eeecc417f0d11cec6c94efb0bd473f07bfeab803bdbc678784d7d81a264736f6c63430008110033",
    "linkReferences": {}
  },
  "methodIdentifiers": {
    "approve(address,uint256)": "095ea7b3",
    "balanceOf(address)": "70a08231",
    "baseURI()": "6c0360eb",
    "burn(uint256)": "42966c68",
    "chickenBondManagerAddress()": "c6315aa0",
    "getApproved(uint256)": "081812fc",
    "isApprovedForAll(address,address)": "e985e9c5",
    "mint(address)": "6a627842",
    "name()": "06fdde03",
    "owner()": "8da5cb5b",
    "ownerOf(uint256)": "6352211e",
    "renounceOwnership()": "715018a6",
    "safeTransferFrom(address,address,uint256)": "42842e0e",
    "safeTransferFrom(address,address,uint256,bytes)": "b88d4fde",
    "setAddresses(address)": "81d3c435",
    "setApprovalForAll(address,bool)": "a22cb465",
    "supportsInterface(bytes4)": "01ffc9a7",
    "symbol()": "95d89b41",
    "tokenURI(uint256)": "c87b56dd",
    "totalSupply()": "18160ddd",
    "transferFrom(address,address,uint256)": "23b872dd",
    "transferOwnership(address)": "f2fde38b"
  },
  "id": 35
}