{
  "abi": [
    {
      "inputs": [
        {
          "internalType": "address payable",
          "name": "_pool",
          "type": "address"
        },
        {
          "internalType": "address",
          "name": "_storageProviderOwner",
          "type": "address"
        },
        {
          "internalType": "address",
          "name": "_storageProviderMiner",
          "type": "address"
        },
        {
          "internalType": "uint256",
          "name": "_loanAmount",
          "type": "uint256"
        }
      ],
      "stateMutability": "nonpayable",
      "type": "constructor"
    },
    {
      "anonymous": false,
      "inputs": [
        {
          "indexed": true,
          "internalType": "address",
          "name": "storageProviderOwner",
          "type": "address"
        },
        {
          "indexed": true,
          "internalType": "address",
          "name": "pool",
          "type": "address"
        },
        {
          "indexed": true,
          "internalType": "uint256",
          "name": "amount",
          "type": "uint256"
        }
      ],
      "name": "PoolUpdated",
      "type": "event"
    },
    {
      "stateMutability": "payable",
      "type": "fallback"
    },
    {
      "inputs": [],
      "name": "getStorageProvider",
      "outputs": [
        {
          "internalType": "address",
          "name": "",
          "type": "address"
        },
        {
          "internalType": "address",
          "name": "",
          "type": "address"
        }
      ],
      "stateMutability": "view",
      "type": "function"
    },
    {
      "inputs": [],
      "name": "loanAmount",
      "outputs": [
        {
          "internalType": "uint256",
          "name": "",
          "type": "uint256"
        }
      ],
      "stateMutability": "view",
      "type": "function"
    },
    {
      "inputs": [],
      "name": "pool",
      "outputs": [
        {
          "internalType": "contract Pool",
          "name": "",
          "type": "address"
        }
      ],
      "stateMutability": "view",
      "type": "function"
    },
    {
      "inputs": [
        {
          "internalType": "uint256",
          "name": "amount",
          "type": "uint256"
        }
      ],
      "name": "reward",
      "outputs": [],
      "stateMutability": "nonpayable",
      "type": "function"
    },
    {
      "inputs": [],
      "name": "storageProviderMiner",
      "outputs": [
        {
          "internalType": "address",
          "name": "",
          "type": "address"
        }
      ],
      "stateMutability": "view",
      "type": "function"
    },
    {
      "inputs": [],
      "name": "storageProviderOwner",
      "outputs": [
        {
          "internalType": "address",
          "name": "",
          "type": "address"
        }
      ],
      "stateMutability": "view",
      "type": "function"
    },
    {
      "stateMutability": "payable",
      "type": "receive"
    }
  ],
  "bytecode": {
    "object": "0x608060405234801561001057600080fd5b506040516103db3803806103db83398101604081905261002f9161008c565b600080546001600160a01b03199081166001600160a01b03968716179091556001805482169486169490941790935560028054909316919093161790556003556100df565b6001600160a01b038116811461008957600080fd5b50565b600080600080608085870312156100a257600080fd5b84516100ad81610074565b60208601519094506100be81610074565b60408601519093506100cf81610074565b6060959095015193969295505050565b6102ed806100ee6000396000f3fe6080604052600436106100565760003560e01c806316f0115b1461005f578063583d42ed1461009c57806361e0c004146100bc5780639ab11609146100dc5780639d585f7f1461010f578063a9fb763c1461013357005b3661005d57005b005b34801561006b57600080fd5b5060005461007f906001600160a01b031681565b6040516001600160a01b0390911681526020015b60405180910390f35b3480156100a857600080fd5b5060025461007f906001600160a01b031681565b3480156100c857600080fd5b5060015461007f906001600160a01b031681565b3480156100e857600080fd5b50600154600254604080516001600160a01b03938416815292909116602083015201610093565b34801561011b57600080fd5b5061012560035481565b604051908152602001610093565b34801561013f57600080fd5b5061005d61014e366004610255565b600054600154604051638ed7333d60e01b81526001600160a01b03918216600482015260248101849052911690638ed7333d90604401600060405180830381600087803b15801561019e57600080fd5b505af11580156101b2573d6000803e3d6000fd5b505050506002816101c3919061026e565b600360008282546101d49190610290565b9091555050600080546040516001600160a01b039091169183156108fc02918491818181858888f19350505050158015610212573d6000803e3d6000fd5b506000805460015460405184936001600160a01b0393841693909216917f85424bdc52e5c08038a3f6865955c70fec7e97dff59e2046ecbdc8c666431cd291a450565b60006020828403121561026757600080fd5b5035919050565b60008261028b57634e487b7160e01b600052601260045260246000fd5b500490565b818103818111156102b157634e487b7160e01b600052601160045260246000fd5b9291505056fea264697066735822122002c6f97e991970beaf037975c29116317ed1d2e8c66b0e25fc8ec2df22af1dc164736f6c63430008110033",
    "linkReferences": {}
  },
  "methodIdentifiers": {
    "getStorageProvider()": "9ab11609",
    "loanAmount()": "9d585f7f",
    "pool()": "16f0115b",
    "reward(uint256)": "a9fb763c",
    "storageProviderMiner()": "583d42ed",
    "storageProviderOwner()": "61e0c004"
  },
  "id": 28
}