{
  "abi": [
    {
      "inputs": [
        {
          "internalType": "address",
          "name": "_bondNFT",
          "type": "address"
        },
        {
          "internalType": "address",
          "name": "_pool",
          "type": "address"
        },
        {
          "internalType": "address",
          "name": "_bfilToken",
          "type": "address"
        },
        {
          "internalType": "uint256",
          "name": "_MIN_BOND_AMOUNT",
          "type": "uint256"
        }
      ],
      "stateMutability": "nonpayable",
      "type": "constructor"
    },
    {
      "inputs": [],
      "name": "BondAmountNotMet",
      "type": "error"
    },
    {
      "inputs": [],
      "name": "BondNotActive",
      "type": "error"
    },
    {
      "inputs": [],
      "name": "BondNotOwner",
      "type": "error"
    },
    {
      "anonymous": false,
      "inputs": [
        {
          "indexed": true,
          "internalType": "address",
          "name": "redeemer",
          "type": "address"
        },
        {
          "indexed": false,
          "internalType": "uint256",
          "name": "bfilAmount",
          "type": "uint256"
        },
        {
          "indexed": false,
          "internalType": "uint256",
          "name": "minfilAmount",
          "type": "uint256"
        },
        {
          "indexed": false,
          "internalType": "uint256",
          "name": "filAmount",
          "type": "uint256"
        },
        {
          "indexed": false,
          "internalType": "uint256",
          "name": "yTokens",
          "type": "uint256"
        },
        {
          "indexed": false,
          "internalType": "uint256",
          "name": "redemptionFee",
          "type": "uint256"
        }
      ],
      "name": "BFILRedeemed",
      "type": "event"
    },
    {
      "anonymous": false,
      "inputs": [
        {
          "indexed": true,
          "internalType": "address",
          "name": "bonder",
          "type": "address"
        },
        {
          "indexed": false,
          "internalType": "uint256",
          "name": "bondId",
          "type": "uint256"
        },
        {
          "indexed": false,
          "internalType": "uint256",
          "name": "principalfilAmount",
          "type": "uint256"
        },
        {
          "indexed": false,
          "internalType": "uint256",
          "name": "minfilAmount",
          "type": "uint256"
        },
        {
          "indexed": false,
          "internalType": "uint256",
          "name": "withdrawnfilAmount",
          "type": "uint256"
        }
      ],
      "name": "BondCancelled",
      "type": "event"
    },
    {
      "anonymous": false,
      "inputs": [
        {
          "indexed": true,
          "internalType": "address",
          "name": "bonder",
          "type": "address"
        },
        {
          "indexed": false,
          "internalType": "uint256",
          "name": "bondId",
          "type": "uint256"
        },
        {
          "indexed": false,
          "internalType": "uint256",
          "name": "filAmount",
          "type": "uint256"
        },
        {
          "indexed": false,
          "internalType": "uint256",
          "name": "bfilAmount",
          "type": "uint256"
        },
        {
          "indexed": false,
          "internalType": "uint256",
          "name": "filSurplus",
          "type": "uint256"
        },
        {
          "indexed": false,
          "internalType": "uint256",
          "name": "chickenInFeeAmount",
          "type": "uint256"
        },
        {
          "indexed": false,
          "internalType": "bool",
          "name": "migration",
          "type": "bool"
        }
      ],
      "name": "BondClaimed",
      "type": "event"
    },
    {
      "anonymous": false,
      "inputs": [
        {
          "indexed": true,
          "internalType": "address",
          "name": "bonder",
          "type": "address"
        },
        {
          "indexed": false,
          "internalType": "uint256",
          "name": "bondId",
          "type": "uint256"
        },
        {
          "indexed": false,
          "internalType": "uint256",
          "name": "amount",
          "type": "uint256"
        }
      ],
      "name": "BondCreated",
      "type": "event"
    },
    {
      "inputs": [],
      "name": "MIN_BOND_AMOUNT",
      "outputs": [
        {
          "internalType": "uint256",
          "name": "",
          "type": "uint256"
        }
      ],
      "stateMutability": "view",
      "type": "function"
    },
    {
      "inputs": [],
      "name": "bfilToken",
      "outputs": [
        {
          "internalType": "contract IBFIL",
          "name": "",
          "type": "address"
        }
      ],
      "stateMutability": "view",
      "type": "function"
    },
    {
      "inputs": [],
      "name": "bondNFT",
      "outputs": [
        {
          "internalType": "contract IBondNFT",
          "name": "",
          "type": "address"
        }
      ],
      "stateMutability": "view",
      "type": "function"
    },
    {
      "inputs": [
        {
          "internalType": "uint256",
          "name": "_bondID",
          "type": "uint256"
        }
      ],
      "name": "chickenIn",
      "outputs": [],
      "stateMutability": "nonpayable",
      "type": "function"
    },
    {
      "inputs": [
        {
          "internalType": "uint256",
          "name": "_bondID",
          "type": "uint256"
        },
        {
          "internalType": "uint256",
          "name": "_minFIL",
          "type": "uint256"
        }
      ],
      "name": "chickenOut",
      "outputs": [],
      "stateMutability": "nonpayable",
      "type": "function"
    },
    {
      "inputs": [],
      "name": "countChickenIn",
      "outputs": [
        {
          "internalType": "uint256",
          "name": "",
          "type": "uint256"
        }
      ],
      "stateMutability": "view",
      "type": "function"
    },
    {
      "inputs": [],
      "name": "countChickenOut",
      "outputs": [
        {
          "internalType": "uint256",
          "name": "",
          "type": "uint256"
        }
      ],
      "stateMutability": "view",
      "type": "function"
    },
    {
      "inputs": [],
      "name": "createBond",
      "outputs": [
        {
          "internalType": "uint256",
          "name": "",
          "type": "uint256"
        }
      ],
      "stateMutability": "payable",
      "type": "function"
    },
    {
      "inputs": [
        {
          "internalType": "uint256",
          "name": "_bondID",
          "type": "uint256"
        }
      ],
      "name": "getBondData",
      "outputs": [
        {
          "internalType": "uint256",
          "name": "filAmount",
          "type": "uint256"
        },
        {
          "internalType": "uint64",
          "name": "claimedBFIL",
          "type": "uint64"
        },
        {
          "internalType": "uint64",
          "name": "startTime",
          "type": "uint64"
        },
        {
          "internalType": "uint64",
          "name": "endTime",
          "type": "uint64"
        },
        {
          "internalType": "uint8",
          "name": "status",
          "type": "uint8"
        }
      ],
      "stateMutability": "view",
      "type": "function"
    },
    {
      "inputs": [],
      "name": "getPendingfil",
      "outputs": [
        {
          "internalType": "uint256",
          "name": "",
          "type": "uint256"
        }
      ],
      "stateMutability": "view",
      "type": "function"
    },
    {
      "inputs": [],
      "name": "getPermanentfil",
      "outputs": [
        {
          "internalType": "uint256",
          "name": "",
          "type": "uint256"
        }
      ],
      "stateMutability": "view",
      "type": "function"
    },
    {
      "inputs": [],
      "name": "migration",
      "outputs": [
        {
          "internalType": "bool",
          "name": "",
          "type": "bool"
        }
      ],
      "stateMutability": "view",
      "type": "function"
    },
    {
      "inputs": [],
      "name": "pool",
      "outputs": [
        {
          "internalType": "contract IPool",
          "name": "",
          "type": "address"
        }
      ],
      "stateMutability": "view",
      "type": "function"
    },
    {
      "inputs": [
        {
          "internalType": "uint256",
          "name": "_bFILToRedeem",
          "type": "uint256"
        },
        {
          "internalType": "uint256",
          "name": "_minFILFromBAMMSPVault",
          "type": "uint256"
        }
      ],
      "name": "redeem",
      "outputs": [
        {
          "internalType": "uint256",
          "name": "",
          "type": "uint256"
        },
        {
          "internalType": "uint256",
          "name": "",
          "type": "uint256"
        }
      ],
      "stateMutability": "nonpayable",
      "type": "function"
    },
    {
      "inputs": [],
      "name": "totalWeightedStartTimes",
      "outputs": [
        {
          "internalType": "uint256",
          "name": "",
          "type": "uint256"
        }
      ],
      "stateMutability": "view",
      "type": "function"
    }
  ],
  "bytecode": {
    "object": "0x61010060405234801561001157600080fd5b50604051610f52380380610f528339810160408190526100309161006e565b6001600160a01b0393841660a05291831660805290911660c05260e0526100b9565b80516001600160a01b038116811461006957600080fd5b919050565b6000806000806080858703121561008457600080fd5b61008d85610052565b935061009b60208601610052565b92506100a960408601610052565b6060959095015193969295505050565b60805160a05160c05160e051610e3761011b6000396000818161026d01526106ce01526000818161019e01526105ff0152600081816102a9015281816103fd015281816107250152610a3401526000818160ff01526108eb0152610e376000f3fe6080604052600436106100e85760003560e01c80637cbc23731161008a578063b0f3af4711610059578063b0f3af4714610297578063c3c29745146102cb578063da105943146102eb578063edb134f31461034557600080fd5b80637cbc23731461020d5780638c123283146102465780639fbc4a5f1461025b578063a091b7951461028f57600080fd5b80633545ab93116100c65780633545ab931461018c5780634b10543b146101c057806359372e2e146101e2578063715eaa1b146101f857600080fd5b806316f0115b146100ed5780631705a3bd1461013e57806327fafcd314610168575b600080fd5b3480156100f957600080fd5b506101217f000000000000000000000000000000000000000000000000000000000000000081565b6040516001600160a01b0390911681526020015b60405180910390f35b34801561014a57600080fd5b506001546101589060ff1681565b6040519015158152602001610135565b34801561017457600080fd5b5061017e60035481565b604051908152602001610135565b34801561019857600080fd5b506101217f000000000000000000000000000000000000000000000000000000000000000081565b3480156101cc57600080fd5b506101e06101db366004610cf2565b61035b565b005b3480156101ee57600080fd5b5061017e60005481565b34801561020457600080fd5b5060055461017e565b34801561021957600080fd5b50610231610228366004610d0b565b50600091829150565b60408051928352602083019190915201610135565b34801561025257600080fd5b5060065461017e565b34801561026757600080fd5b5061017e7f000000000000000000000000000000000000000000000000000000000000000081565b61017e6106ca565b3480156102a357600080fd5b506101217f000000000000000000000000000000000000000000000000000000000000000081565b3480156102d757600080fd5b506101e06102e6366004610d0b565b610992565b3480156102f757600080fd5b5061030b610306366004610cf2565b610c03565b6040805195865267ffffffffffffffff948516602087015292841692850192909252909116606083015260ff16608082015260a001610135565b34801561035157600080fd5b5061017e60025481565b6000818152600460209081526040808320815160a08101835281548152600182015467ffffffffffffffff80821695830195909552600160401b8104851693820193909352600160801b83049093166060840152906080830190600160c01b900460ff1660038111156103d0576103d0610d2d565b60038111156103e1576103e1610d2d565b9052506040516331a9108f60e11b8152600481018490529091507f00000000000000000000000000000000000000000000000000000000000000006001600160a01b031690636352211e906024016020604051808303816000875af115801561044e573d6000803e3d6000fd5b505050506040513d601f19601f820116820180604052508101906104729190610d43565b6001600160a01b0316336001600160a01b0316146104a3576040516332b9680960e11b815260040160405180910390fd5b6001816080015160038111156104bb576104bb610d2d565b146104d95760405163c8631cf960e01b815260040160405180910390fd5b60018060006105016104f3670de0b6b3a764000084610d89565b67ffffffffffffffff610cd8565b60008681526004602052604081206001908101805467ffffffffffffffff94851678ff00000000000000000000000000000000ffffffffffffffff1990911617600360c01b1767ffffffffffffffff60801b1916600160801b429590951694909402939093179092556003805490919061057c908490610dab565b9091555050835160058054600090610595908490610dbe565b9091555050604084015184516105b59167ffffffffffffffff1690610dd1565b6000808282546105c59190610dbe565b9250508190555081600660008282546105de9190610dab565b90915550506040516340c10f1960e01b8152336004820152602481018490527f00000000000000000000000000000000000000000000000000000000000000006001600160a01b0316906340c10f1990604401600060405180830381600087803b15801561064b57600080fd5b505af115801561065f573d6000803e3d6000fd5b50508551600154604080518a815260208101939093528201879052606082018690526080820185905260ff16151560a08201523392507fb347fadd26e485ccc702ad78278ab28261fdac503a067427afe64c62cb07091d915060c00160405180910390a25050505050565b60007f000000000000000000000000000000000000000000000000000000000000000034101561070d5760405163269ae2ef60e11b815260040160405180910390fd5b6040516335313c2160e11b81523360048201526000907f00000000000000000000000000000000000000000000000000000000000000006001600160a01b031690636a627842906024016020604051808303816000875af1158015610776573d6000803e3d6000fd5b505050506040513d601f19601f8201168201806040525081019061079a9190610de8565b90506107cb6040805160a0810182526000808252602082018190529181018290526060810182905290608082015290565b3481524267ffffffffffffffff16604082015260016080820181905250600082815260046020908152604091829020835181559083015160018201805493850151606086015167ffffffffffffffff908116600160801b0267ffffffffffffffff60801b19928216600160401b026fffffffffffffffffffffffffffffffff199097169190941617949094179384168217815560808501518594909260ff60c01b191668ffffffffffffffffff60801b1990911617600160c01b83600381111561089757610897610d2d565b021790555090505034600560008282546108b19190610dab565b909155506108c190504234610dd1565b6000808282546108d19190610dab565b909155505060405163cf09e4a560e01b81523360048201527f00000000000000000000000000000000000000000000000000000000000000006001600160a01b03169063cf09e4a59034906024016000604051808303818588803b15801561093857600080fd5b505af115801561094c573d6000803e3d6000fd5b5050604080518681523460208201523394507f4361c7ac3132b2eded4f3bdca05e1e5e1f77fe7f642e5ce77b13b1392aa3395c935001905060405180910390a250919050565b6000828152600460209081526040808320815160a08101835281548152600182015467ffffffffffffffff80821695830195909552600160401b8104851693820193909352600160801b83049093166060840152906080830190600160c01b900460ff166003811115610a0757610a07610d2d565b6003811115610a1857610a18610d2d565b9052506040516331a9108f60e11b8152600481018590529091507f00000000000000000000000000000000000000000000000000000000000000006001600160a01b031690636352211e906024016020604051808303816000875af1158015610a85573d6000803e3d6000fd5b505050506040513d601f19601f82011682018060405250810190610aa99190610d43565b6001600160a01b0316336001600160a01b031614610ada576040516332b9680960e11b815260040160405180910390fd5b600181608001516003811115610af257610af2610d2d565b14610b105760405163c8631cf960e01b815260040160405180910390fd5b60008381526004602052604081206001908101805467ffffffffffffffff4216600160801b0268ffffffffffffffffff60801b1990911617600160c11b1790556002805491929091610b63908490610dab565b9091555050805160058054600090610b7c908490610dbe565b909155505060408101518151610b9c9167ffffffffffffffff1690610dd1565b600080828254610bac9190610dbe565b909155505080516040805185815260208101839052908101829052606081019190915233907fff365fcc3f8fa0b1e9ea12889c8b2050e9f7cba6edb3568888775e0bd2bc63a09060800160405180910390a2505050565b6000818152600460209081526040808320815160a08101835281548152600182015467ffffffffffffffff80821695830195909552600160401b8104851693820193909352600160801b83049093166060840152839283928392839283929091906080830190600160c01b900460ff166003811115610c8457610c84610d2d565b6003811115610c9557610c95610d2d565b815250509050806000015181602001518260400151836060015184608001516003811115610cc557610cc5610d2d565b939b929a50909850965090945092505050565b6000818310610ce75781610ce9565b825b90505b92915050565b600060208284031215610d0457600080fd5b5035919050565b60008060408385031215610d1e57600080fd5b50508035926020909101359150565b634e487b7160e01b600052602160045260246000fd5b600060208284031215610d5557600080fd5b81516001600160a01b0381168114610d6c57600080fd5b9392505050565b634e487b7160e01b600052601160045260246000fd5b600082610da657634e487b7160e01b600052601260045260246000fd5b500490565b80820180821115610cec57610cec610d73565b81810381811115610cec57610cec610d73565b8082028115828204841417610cec57610cec610d73565b600060208284031215610dfa57600080fd5b505191905056fea264697066735822122004f9097ca1292f66531846d83560cfc1d85687c1316570dfcf3ef197589b1d9164736f6c63430008110033",
    "linkReferences": {}
  },
  "methodIdentifiers": {
    "MIN_BOND_AMOUNT()": "9fbc4a5f",
    "bfilToken()": "3545ab93",
    "bondNFT()": "b0f3af47",
    "chickenIn(uint256)": "4b10543b",
    "chickenOut(uint256,uint256)": "c3c29745",
    "countChickenIn()": "27fafcd3",
    "countChickenOut()": "edb134f3",
    "createBond()": "a091b795",
    "getBondData(uint256)": "da105943",
    "getPendingfil()": "715eaa1b",
    "getPermanentfil()": "8c123283",
    "migration()": "1705a3bd",
    "pool()": "16f0115b",
    "redeem(uint256,uint256)": "7cbc2373",
    "totalWeightedStartTimes()": "59372e2e"
  },
  "id": 36
}