{
  "abi": [
    {
      "inputs": [],
      "stateMutability": "nonpayable",
      "type": "constructor"
    },
    {
      "inputs": [],
      "name": "CallerNotChickenManager",
      "type": "error"
    },
    {
      "anonymous": false,
      "inputs": [
        {
          "indexed": true,
          "internalType": "address",
          "name": "from",
          "type": "address"
        },
        {
          "indexed": false,
          "internalType": "uint256",
          "name": "value",
          "type": "uint256"
        }
      ],
      "name": "LenderDeposit",
      "type": "event"
    },
    {
      "anonymous": false,
      "inputs": [
        {
          "indexed": true,
          "internalType": "address",
          "name": "broker",
          "type": "address"
        },
        {
          "indexed": true,
          "internalType": "address",
          "name": "pool",
          "type": "address"
        },
        {
          "indexed": false,
          "internalType": "address",
          "name": "storageProviderOwner",
          "type": "address"
        },
        {
          "indexed": false,
          "internalType": "address",
          "name": "storageProviderMiner",
          "type": "address"
        },
        {
          "indexed": false,
          "internalType": "uint256",
          "name": "amount",
          "type": "uint256"
        }
      ],
      "name": "NewBrokerDeployed",
      "type": "event"
    },
    {
      "anonymous": false,
      "inputs": [
        {
          "indexed": true,
          "internalType": "address",
          "name": "previousOwner",
          "type": "address"
        },
        {
          "indexed": true,
          "internalType": "address",
          "name": "newOwner",
          "type": "address"
        }
      ],
      "name": "OwnershipTransferred",
      "type": "event"
    },
    {
      "anonymous": false,
      "inputs": [
        {
          "indexed": true,
          "internalType": "address",
          "name": "from",
          "type": "address"
        },
        {
          "indexed": false,
          "internalType": "uint256",
          "name": "value",
          "type": "uint256"
        }
      ],
      "name": "StorageProviderDeposit",
      "type": "event"
    },
    {
      "stateMutability": "payable",
      "type": "fallback"
    },
    {
      "inputs": [],
      "name": "chickenBondManagerAddress",
      "outputs": [
        {
          "internalType": "address",
          "name": "",
          "type": "address"
        }
      ],
      "stateMutability": "view",
      "type": "function"
    },
    {
      "inputs": [
        {
          "internalType": "address",
          "name": "lender",
          "type": "address"
        }
      ],
      "name": "depositLender",
      "outputs": [],
      "stateMutability": "payable",
      "type": "function"
    },
    {
      "inputs": [],
      "name": "depositStorageProvider",
      "outputs": [],
      "stateMutability": "payable",
      "type": "function"
    },
    {
      "inputs": [
        {
          "internalType": "address",
          "name": "",
          "type": "address"
        }
      ],
      "name": "lenderBalance",
      "outputs": [
        {
          "internalType": "uint256",
          "name": "",
          "type": "uint256"
        }
      ],
      "stateMutability": "view",
      "type": "function"
    },
    {
      "inputs": [
        {
          "internalType": "address",
          "name": "",
          "type": "address"
        }
      ],
      "name": "loans",
      "outputs": [
        {
          "internalType": "contract Broker",
          "name": "",
          "type": "address"
        }
      ],
      "stateMutability": "view",
      "type": "function"
    },
    {
      "inputs": [
        {
          "internalType": "address",
          "name": "",
          "type": "address"
        }
      ],
      "name": "lockedCapital",
      "outputs": [
        {
          "internalType": "uint256",
          "name": "",
          "type": "uint256"
        }
      ],
      "stateMutability": "view",
      "type": "function"
    },
    {
      "inputs": [],
      "name": "owner",
      "outputs": [
        {
          "internalType": "address",
          "name": "",
          "type": "address"
        }
      ],
      "stateMutability": "view",
      "type": "function"
    },
    {
      "inputs": [],
      "name": "renounceOwnership",
      "outputs": [],
      "stateMutability": "nonpayable",
      "type": "function"
    },
    {
      "inputs": [
        {
          "internalType": "address",
          "name": "storageProviderOwner",
          "type": "address"
        },
        {
          "internalType": "address",
          "name": "storageProviderMiner",
          "type": "address"
        },
        {
          "internalType": "uint256",
          "name": "amount",
          "type": "uint256"
        }
      ],
      "name": "requestLoan",
      "outputs": [
        {
          "internalType": "address",
          "name": "",
          "type": "address"
        }
      ],
      "stateMutability": "nonpayable",
      "type": "function"
    },
    {
      "inputs": [
        {
          "internalType": "address",
          "name": "_chickenBondManagerAddress",
          "type": "address"
        }
      ],
      "name": "setAddresses",
      "outputs": [],
      "stateMutability": "nonpayable",
      "type": "function"
    },
    {
      "inputs": [
        {
          "internalType": "address",
          "name": "",
          "type": "address"
        }
      ],
      "name": "storageProviderBalance",
      "outputs": [
        {
          "internalType": "uint256",
          "name": "",
          "type": "uint256"
        }
      ],
      "stateMutability": "view",
      "type": "function"
    },
    {
      "inputs": [],
      "name": "totalCollateral",
      "outputs": [
        {
          "internalType": "uint256",
          "name": "",
          "type": "uint256"
        }
      ],
      "stateMutability": "view",
      "type": "function"
    },
    {
      "inputs": [],
      "name": "totalLenderBalance",
      "outputs": [
        {
          "internalType": "uint256",
          "name": "",
          "type": "uint256"
        }
      ],
      "stateMutability": "view",
      "type": "function"
    },
    {
      "inputs": [],
      "name": "totalStorageProviderBalance",
      "outputs": [
        {
          "internalType": "uint256",
          "name": "",
          "type": "uint256"
        }
      ],
      "stateMutability": "view",
      "type": "function"
    },
    {
      "inputs": [],
      "name": "totalWorkingCapital",
      "outputs": [
        {
          "internalType": "uint256",
          "name": "",
          "type": "uint256"
        }
      ],
      "stateMutability": "view",
      "type": "function"
    },
    {
      "inputs": [
        {
          "internalType": "address",
          "name": "newOwner",
          "type": "address"
        }
      ],
      "name": "transferOwnership",
      "outputs": [],
      "stateMutability": "nonpayable",
      "type": "function"
    },
    {
      "inputs": [
        {
          "internalType": "address",
          "name": "_storageProvider",
          "type": "address"
        },
        {
          "internalType": "uint256",
          "name": "amount",
          "type": "uint256"
        }
      ],
      "name": "updatePool",
      "outputs": [],
      "stateMutability": "nonpayable",
      "type": "function"
    },
    {
      "stateMutability": "payable",
      "type": "receive"
    }
  ],
  "bytecode": {
    "object": "0x608060405260001960015534801561001657600080fd5b5061002033610025565b610075565b600080546001600160a01b038381166001600160a01b0319831681178455604051919092169283917f8be0079c531659141344cd1fd0a4f28419497f9722a3daafe3b4186f6b6457e09190a35050565b610eed806100846000396000f3fe6080604052600436106100f65760003560e01c806381d3c4351161008f578063c6315aa011610061578063c6315aa0146102bc578063cf09e4a5146102dc578063e47dace5146102ef578063f2fde38b14610305578063f7b926af1461032557005b806381d3c435146102315780638da5cb5b146102515780638ed7333d1461026f5780639be9b4bd1461028f57005b8063715018a6116100c8578063715018a61461019857806373b4086b146101ad5780637da3a69f146101fb578063818ebe1f1461021b57005b8063275972ca146100ff57806332b5ce0f1461013f578063365603e31461016c5780634ac8eb5f1461018257005b366100fd57005b005b34801561010b57600080fd5b5061012c61011a3660046109d9565b60036020526000908152604090205481565b6040519081526020015b60405180910390f35b34801561014b57600080fd5b5061012c61015a3660046109d9565b60046020526000908152604090205481565b34801561017857600080fd5b5061012c60085481565b34801561018e57600080fd5b5061012c60095481565b3480156101a457600080fd5b506100fd61032d565b3480156101b957600080fd5b506101e36101c83660046109d9565b6002602052600090815260409020546001600160a01b031681565b6040516001600160a01b039091168152602001610136565b34801561020757600080fd5b506101e36102163660046109fb565b610341565b34801561022757600080fd5b5061012c60065481565b34801561023d57600080fd5b506100fd61024c3660046109d9565b6105eb565b34801561025d57600080fd5b506000546001600160a01b03166101e3565b34801561027b57600080fd5b506100fd61028a366004610a37565b610619565b34801561029b57600080fd5b5061012c6102aa3660046109d9565b60056020526000908152604090205481565b3480156102c857600080fd5b50600a546101e3906001600160a01b031681565b6100fd6102ea3660046109d9565b610677565b3480156102fb57600080fd5b5061012c60075481565b34801561031157600080fd5b506100fd6103203660046109d9565b610788565b6100fd6107fe565b6103356108db565b61033f6000610935565b565b600154600090610352836002610a77565b1061039b5760405162461bcd60e51b8152602060048201526014602482015273151bdbc818db1bdcd9481d1bc81350560812539560621b60448201526064015b60405180910390fd5b336000908152600460205260409020548211156104045760405162461bcd60e51b815260206004820152602160248201527f4e6f7420656e6f75676820636f6c6c61746572616c20696e2074686520706f6f6044820152601b60fa1b6064820152608401610392565b8160065410156104685760405162461bcd60e51b815260206004820152602960248201527f4e6f7420656e6f75676820776f726b696e6720636f6c6c61746572616c20696e604482015268081d1a19481c1bdbdb60ba1b6064820152608401610392565b60003085858560405161047a906109b0565b6001600160a01b0394851681529284166020840152921660408201526060810191909152608001604051809103906000f0801580156104bd573d6000803e3d6000fd5b5090506001600160a01b0381166108fc6104d8856002610a77565b6040518115909202916000818181858888f19350505050158015610500573d6000803e3d6000fd5b503360009081526004602052604081208054859290610520908490610a94565b9250508190555082600660008282546105399190610a94565b9250508190555082600860008282546105529190610a94565b92505081905550826007600082825461056b9190610a94565b9091555061057c9050836002610a77565b6009600082825461058d9190610a94565b9091555050604080516001600160a01b038781168252868116602083015291810185905230918316907fd595e8b2759dd83b9a1980ca6551120fb8c9fa00547a57e52906d84229a9f7049060600160405180910390a3949350505050565b6105f36108db565b600a80546001600160a01b0319166001600160a01b03831617905561061661032d565b50565b610624600282610aa7565b6001600160a01b0383166000908152600560205260408120805490919061064c908490610ac9565b9091555061065d9050600282610aa7565b6006600082825461066e9190610ac9565b90915550505050565b61067f610985565b600034116106cf5760405162461bcd60e51b815260206004820181905260248201527f416d6f756e74206d7573742062652067726561746572207468616e207a65726f6044820152606401610392565b6001600160a01b038116600090815260036020526040812080543492906106f7908490610ac9565b9250508190555034600760008282546107109190610ac9565b9250508190555034600660008282546107299190610ac9565b9250508190555034600960008282546107429190610ac9565b90915550506040513481526001600160a01b038216907f1c868d072bbce558998c37d738d8831fa0c46f656a6f2703af2750802ad804eb9060200160405180910390a250565b6107906108db565b6001600160a01b0381166107f55760405162461bcd60e51b815260206004820152602660248201527f4f776e61626c653a206e6577206f776e657220697320746865207a65726f206160448201526564647265737360d01b6064820152608401610392565b61061681610935565b6000341161084e5760405162461bcd60e51b815260206004820181905260248201527f416d6f756e74206d7573742062652067726561746572207468616e207a65726f6044820152606401610392565b336000908152600460205260408120805434929061086d908490610ac9565b9250508190555034600860008282546108869190610ac9565b92505081905550346009600082825461089f9190610ac9565b909155505060405134815233907f925889d88934689040aef41de5dd964426690f9c7780c17a18e78508c4f6b4639060200160405180910390a2565b6000546001600160a01b0316331461033f5760405162461bcd60e51b815260206004820181905260248201527f4f776e61626c653a2063616c6c6572206973206e6f7420746865206f776e65726044820152606401610392565b600080546001600160a01b038381166001600160a01b0319831681178455604051919092169283917f8be0079c531659141344cd1fd0a4f28419497f9722a3daafe3b4186f6b6457e09190a35050565b600a546001600160a01b0316331461033f57604051636bfab10b60e01b815260040160405180910390fd5b6103db80610add83390190565b80356001600160a01b03811681146109d457600080fd5b919050565b6000602082840312156109eb57600080fd5b6109f4826109bd565b9392505050565b600080600060608486031215610a1057600080fd5b610a19846109bd565b9250610a27602085016109bd565b9150604084013590509250925092565b60008060408385031215610a4a57600080fd5b610a53836109bd565b946020939093013593505050565b634e487b7160e01b600052601160045260246000fd5b8082028115828204841417610a8e57610a8e610a61565b92915050565b81810381811115610a8e57610a8e610a61565b600082610ac457634e487b7160e01b600052601260045260246000fd5b500490565b80820180821115610a8e57610a8e610a6156fe608060405234801561001057600080fd5b506040516103db3803806103db83398101604081905261002f9161008c565b600080546001600160a01b03199081166001600160a01b03968716179091556001805482169486169490941790935560028054909316919093161790556003556100df565b6001600160a01b038116811461008957600080fd5b50565b600080600080608085870312156100a257600080fd5b84516100ad81610074565b60208601519094506100be81610074565b60408601519093506100cf81610074565b6060959095015193969295505050565b6102ed806100ee6000396000f3fe6080604052600436106100565760003560e01c806316f0115b1461005f578063583d42ed1461009c57806361e0c004146100bc5780639ab11609146100dc5780639d585f7f1461010f578063a9fb763c1461013357005b3661005d57005b005b34801561006b57600080fd5b5060005461007f906001600160a01b031681565b6040516001600160a01b0390911681526020015b60405180910390f35b3480156100a857600080fd5b5060025461007f906001600160a01b031681565b3480156100c857600080fd5b5060015461007f906001600160a01b031681565b3480156100e857600080fd5b50600154600254604080516001600160a01b03938416815292909116602083015201610093565b34801561011b57600080fd5b5061012560035481565b604051908152602001610093565b34801561013f57600080fd5b5061005d61014e366004610255565b600054600154604051638ed7333d60e01b81526001600160a01b03918216600482015260248101849052911690638ed7333d90604401600060405180830381600087803b15801561019e57600080fd5b505af11580156101b2573d6000803e3d6000fd5b505050506002816101c3919061026e565b600360008282546101d49190610290565b9091555050600080546040516001600160a01b039091169183156108fc02918491818181858888f19350505050158015610212573d6000803e3d6000fd5b506000805460015460405184936001600160a01b0393841693909216917f85424bdc52e5c08038a3f6865955c70fec7e97dff59e2046ecbdc8c666431cd291a450565b60006020828403121561026757600080fd5b5035919050565b60008261028b57634e487b7160e01b600052601260045260246000fd5b500490565b818103818111156102b157634e487b7160e01b600052601160045260246000fd5b9291505056fea264697066735822122002c6f97e991970beaf037975c29116317ed1d2e8c66b0e25fc8ec2df22af1dc164736f6c63430008110033a26469706673582212205c83ad80da391f86bb8bafc199c06c27f66c5e9e496e7690d3c169e1afc6bc0a64736f6c63430008110033",
    "linkReferences": {}
  },
  "methodIdentifiers": {
    "chickenBondManagerAddress()": "c6315aa0",
    "depositLender(address)": "cf09e4a5",
    "depositStorageProvider()": "f7b926af",
    "lenderBalance(address)": "275972ca",
    "loans(address)": "73b4086b",
    "lockedCapital(address)": "9be9b4bd",
    "owner()": "8da5cb5b",
    "renounceOwnership()": "715018a6",
    "requestLoan(address,address,uint256)": "7da3a69f",
    "setAddresses(address)": "81d3c435",
    "storageProviderBalance(address)": "32b5ce0f",
    "totalCollateral()": "4ac8eb5f",
    "totalLenderBalance()": "e47dace5",
    "totalStorageProviderBalance()": "365603e3",
    "totalWorkingCapital()": "818ebe1f",
    "transferOwnership(address)": "f2fde38b",
    "updatePool(address,uint256)": "8ed7333d"
  },
  "id": 33
}