{
  "abi": [
    {
      "anonymous": false,
      "inputs": [
        {
          "indexed": true,
          "internalType": "address",
          "name": "from",
          "type": "address"
        },
        {
          "indexed": false,
          "internalType": "uint256",
          "name": "value",
          "type": "uint256"
        }
      ],
      "name": "LenderDeposit",
      "type": "event"
    },
    {
      "anonymous": false,
      "inputs": [
        {
          "indexed": true,
          "internalType": "address",
          "name": "broker",
          "type": "address"
        },
        {
          "indexed": true,
          "internalType": "address",
          "name": "pool",
          "type": "address"
        },
        {
          "indexed": false,
          "internalType": "address",
          "name": "storageProviderOwner",
          "type": "address"
        },
        {
          "indexed": false,
          "internalType": "address",
          "name": "storageProviderMiner",
          "type": "address"
        },
        {
          "indexed": false,
          "internalType": "uint256",
          "name": "amount",
          "type": "uint256"
        }
      ],
      "name": "NewBrokerDeployed",
      "type": "event"
    },
    {
      "anonymous": false,
      "inputs": [
        {
          "indexed": true,
          "internalType": "address",
          "name": "storageProvider",
          "type": "address"
        },
        {
          "indexed": false,
          "internalType": "uint256",
          "name": "amount",
          "type": "uint256"
        }
      ],
      "name": "PoolUpdated",
      "type": "event"
    },
    {
      "anonymous": false,
      "inputs": [
        {
          "indexed": true,
          "internalType": "address",
          "name": "from",
          "type": "address"
        },
        {
          "indexed": false,
          "internalType": "uint256",
          "name": "value",
          "type": "uint256"
        }
      ],
      "name": "StorageProviderDeposit",
      "type": "event"
    },
    {
      "stateMutability": "payable",
      "type": "fallback"
    },
    {
      "inputs": [],
      "name": "depositLender",
      "outputs": [],
      "stateMutability": "payable",
      "type": "function"
    },
    {
      "inputs": [],
      "name": "depositStorageProvider",
      "outputs": [],
      "stateMutability": "payable",
      "type": "function"
    },
    {
      "inputs": [
        {
          "internalType": "address",
          "name": "",
          "type": "address"
        }
      ],
      "name": "lenderBalance",
      "outputs": [
        {
          "internalType": "uint256",
          "name": "",
          "type": "uint256"
        }
      ],
      "stateMutability": "view",
      "type": "function"
    },
    {
      "inputs": [
        {
          "internalType": "address",
          "name": "",
          "type": "address"
        }
      ],
      "name": "loans",
      "outputs": [
        {
          "internalType": "contract Broker",
          "name": "",
          "type": "address"
        }
      ],
      "stateMutability": "view",
      "type": "function"
    },
    {
      "inputs": [
        {
          "internalType": "address",
          "name": "",
          "type": "address"
        }
      ],
      "name": "lockedCapital",
      "outputs": [
        {
          "internalType": "uint256",
          "name": "",
          "type": "uint256"
        }
      ],
      "stateMutability": "view",
      "type": "function"
    },
    {
      "inputs": [
        {
          "internalType": "address",
          "name": "storageProviderOwner",
          "type": "address"
        },
        {
          "internalType": "address",
          "name": "storageProviderMiner",
          "type": "address"
        },
        {
          "internalType": "uint256",
          "name": "amount",
          "type": "uint256"
        }
      ],
      "name": "requestLoan",
      "outputs": [
        {
          "internalType": "address",
          "name": "",
          "type": "address"
        }
      ],
      "stateMutability": "nonpayable",
      "type": "function"
    },
    {
      "inputs": [
        {
          "internalType": "address",
          "name": "",
          "type": "address"
        }
      ],
      "name": "storageProviderBalance",
      "outputs": [
        {
          "internalType": "uint256",
          "name": "",
          "type": "uint256"
        }
      ],
      "stateMutability": "view",
      "type": "function"
    },
    {
      "inputs": [],
      "name": "totalCollateral",
      "outputs": [
        {
          "internalType": "uint256",
          "name": "",
          "type": "uint256"
        }
      ],
      "stateMutability": "view",
      "type": "function"
    },
    {
      "inputs": [],
      "name": "totalLenderBalance",
      "outputs": [
        {
          "internalType": "uint256",
          "name": "",
          "type": "uint256"
        }
      ],
      "stateMutability": "view",
      "type": "function"
    },
    {
      "inputs": [],
      "name": "totalStorageProviderBalance",
      "outputs": [
        {
          "internalType": "uint256",
          "name": "",
          "type": "uint256"
        }
      ],
      "stateMutability": "view",
      "type": "function"
    },
    {
      "inputs": [],
      "name": "totalWorkingCapital",
      "outputs": [
        {
          "internalType": "uint256",
          "name": "",
          "type": "uint256"
        }
      ],
      "stateMutability": "view",
      "type": "function"
    },
    {
      "inputs": [
        {
          "internalType": "address",
          "name": "_storageProvider",
          "type": "address"
        },
        {
          "internalType": "uint256",
          "name": "amount",
          "type": "uint256"
        }
      ],
      "name": "updatePool",
      "outputs": [],
      "stateMutability": "nonpayable",
      "type": "function"
    },
    {
      "stateMutability": "payable",
      "type": "receive"
    }
  ],
  "bytecode": {
    "object": "0x608060405260001960005534801561001657600080fd5b50610c59806100266000396000f3fe6080604052600436106100a55760003560e01c80637da3a69f116100615780637da3a69f1461019d578063818ebe1f146101bd5780638ed7333d146101d35780639be9b4bd146101f3578063e47dace514610220578063f7b926af1461023657005b8063275972ca146100ae57806332b5ce0f146100ee578063365603e31461011b5780634ac8eb5f146101315780635156898c1461014757806373b4086b1461014f57005b366100ac57005b005b3480156100ba57600080fd5b506100db6100c936600461073c565b60026020526000908152604090205481565b6040519081526020015b60405180910390f35b3480156100fa57600080fd5b506100db61010936600461073c565b60036020526000908152604090205481565b34801561012757600080fd5b506100db60075481565b34801561013d57600080fd5b506100db60085481565b6100ac61023e565b34801561015b57600080fd5b5061018561016a36600461073c565b6001602052600090815260409020546001600160a01b031681565b6040516001600160a01b0390911681526020016100e5565b3480156101a957600080fd5b506101856101b836600461075e565b61033a565b3480156101c957600080fd5b506100db60055481565b3480156101df57600080fd5b506100ac6101ee36600461079a565b6105dd565b3480156101ff57600080fd5b506100db61020e36600461073c565b60046020526000908152604090205481565b34801561022c57600080fd5b506100db60065481565b6100ac61063b565b600034116102935760405162461bcd60e51b815260206004820181905260248201527f416d6f756e74206d7573742062652067726561746572207468616e207a65726f60448201526064015b60405180910390fd5b33600090815260026020526040812080543492906102b29084906107da565b9250508190555034600660008282546102cb91906107da565b9250508190555034600560008282546102e491906107da565b9250508190555034600860008282546102fd91906107da565b909155505060405134815233907f1c868d072bbce558998c37d738d8831fa0c46f656a6f2703af2750802ad804eb906020015b60405180910390a2565b600080546103498360026107f2565b1061038d5760405162461bcd60e51b8152602060048201526014602482015273151bdbc818db1bdcd9481d1bc81350560812539560621b604482015260640161028a565b336000908152600360205260409020548211156103f65760405162461bcd60e51b815260206004820152602160248201527f4e6f7420656e6f75676820636f6c6c61746572616c20696e2074686520706f6f6044820152601b60fa1b606482015260840161028a565b81600554101561045a5760405162461bcd60e51b815260206004820152602960248201527f4e6f7420656e6f75676820776f726b696e6720636f6c6c61746572616c20696e604482015268081d1a19481c1bdbdb60ba1b606482015260840161028a565b60003085858560405161046c90610713565b6001600160a01b0394851681529284166020840152921660408201526060810191909152608001604051809103906000f0801580156104af573d6000803e3d6000fd5b5090506001600160a01b0381166108fc6104ca8560026107f2565b6040518115909202916000818181858888f193505050501580156104f2573d6000803e3d6000fd5b503360009081526003602052604081208054859290610512908490610811565b92505081905550826005600082825461052b9190610811565b9250508190555082600760008282546105449190610811565b92505081905550826006600082825461055d9190610811565b9091555061056e90508360026107f2565b6008600082825461057f9190610811565b9091555050604080516001600160a01b038781168252868116602083015291810185905230918316907fd595e8b2759dd83b9a1980ca6551120fb8c9fa00547a57e52906d84229a9f7049060600160405180910390a3949350505050565b6105e8600282610828565b6001600160a01b038316600090815260046020526040812080549091906106109084906107da565b909155506106219050600282610828565b6005600082825461063291906107da565b90915550505050565b6000341161068b5760405162461bcd60e51b815260206004820181905260248201527f416d6f756e74206d7573742062652067726561746572207468616e207a65726f604482015260640161028a565b33600090815260036020526040812080543492906106aa9084906107da565b9250508190555034600760008282546106c391906107da565b9250508190555034600860008282546106dc91906107da565b909155505060405134815233907f925889d88934689040aef41de5dd964426690f9c7780c17a18e78508c4f6b46390602001610330565b6103d98061084b83390190565b80356001600160a01b038116811461073757600080fd5b919050565b60006020828403121561074e57600080fd5b61075782610720565b9392505050565b60008060006060848603121561077357600080fd5b61077c84610720565b925061078a60208501610720565b9150604084013590509250925092565b600080604083850312156107ad57600080fd5b6107b683610720565b946020939093013593505050565b634e487b7160e01b600052601160045260246000fd5b600082198211156107ed576107ed6107c4565b500190565b600081600019048311821515161561080c5761080c6107c4565b500290565b600082821015610823576108236107c4565b500390565b60008261084557634e487b7160e01b600052601260045260246000fd5b50049056fe608060405234801561001057600080fd5b506040516103d93803806103d983398101604081905261002f9161008c565b600080546001600160a01b03199081166001600160a01b03968716179091556001805482169486169490941790935560028054909316919093161790556003556100df565b6001600160a01b038116811461008957600080fd5b50565b600080600080608085870312156100a257600080fd5b84516100ad81610074565b60208601519094506100be81610074565b60408601519093506100cf81610074565b6060959095015193969295505050565b6102eb806100ee6000396000f3fe6080604052600436106100565760003560e01c806316f0115b1461005f578063583d42ed1461009c57806361e0c004146100bc5780639ab11609146100dc5780639d585f7f1461010f578063a9fb763c1461013357005b3661005d57005b005b34801561006b57600080fd5b5060005461007f906001600160a01b031681565b6040516001600160a01b0390911681526020015b60405180910390f35b3480156100a857600080fd5b5060025461007f906001600160a01b031681565b3480156100c857600080fd5b5060015461007f906001600160a01b031681565b3480156100e857600080fd5b50600154600254604080516001600160a01b03938416815292909116602083015201610093565b34801561011b57600080fd5b5061012560035481565b604051908152602001610093565b34801561013f57600080fd5b5061005d61014e366004610255565b600054600154604051638ed7333d60e01b81526001600160a01b03918216600482015260248101849052911690638ed7333d90604401600060405180830381600087803b15801561019e57600080fd5b505af11580156101b2573d6000803e3d6000fd5b505050506002816101c3919061026e565b600360008282546101d49190610290565b9091555050600080546040516001600160a01b039091169183156108fc02918491818181858888f19350505050158015610212573d6000803e3d6000fd5b506000805460015460405184936001600160a01b0393841693909216917f85424bdc52e5c08038a3f6865955c70fec7e97dff59e2046ecbdc8c666431cd291a450565b60006020828403121561026757600080fd5b5035919050565b60008261028b57634e487b7160e01b600052601260045260246000fd5b500490565b6000828210156102b057634e487b7160e01b600052601160045260246000fd5b50039056fea2646970667358221220e1ab46b64c24b787904cf2eb1b54fd1be3307a84403250b01f36e31c8a7a1c7d64736f6c634300080d0033a264697066735822122056859090ee31deeabcfe2204129af4735635c7669b77ecb316482598f7433e2c64736f6c634300080d0033",
    "linkReferences": {}
  },
  "methodIdentifiers": {
    "depositLender()": "5156898c",
    "depositStorageProvider()": "f7b926af",
    "lenderBalance(address)": "275972ca",
    "loans(address)": "73b4086b",
    "lockedCapital(address)": "9be9b4bd",
    "requestLoan(address,address,uint256)": "7da3a69f",
    "storageProviderBalance(address)": "32b5ce0f",
    "totalCollateral()": "4ac8eb5f",
    "totalLenderBalance()": "e47dace5",
    "totalStorageProviderBalance()": "365603e3",
    "totalWorkingCapital()": "818ebe1f",
    "updatePool(address,uint256)": "8ed7333d"
  },
  "id": 18
}